{
  "contractName": "CampaignTest",
  "abi": [
    {
      "inputs": [
        {
          "internalType": "address",
          "name": "newBeneficiaryAddr",
          "type": "address"
        }
      ],
      "payable": false,
      "stateMutability": "nonpayable",
      "type": "constructor"
    },
    {
      "anonymous": false,
      "inputs": [
        {
          "indexed": false,
          "internalType": "uint256",
          "name": "amt",
          "type": "uint256"
        },
        {
          "indexed": false,
          "internalType": "address",
          "name": "donor",
          "type": "address"
        }
      ],
      "name": "DonationMade",
      "type": "event"
    },
    {
      "constant": false,
      "inputs": [
        {
          "internalType": "uint256",
          "name": "amt",
          "type": "uint256"
        }
      ],
      "name": "donate",
      "outputs": [],
      "payable": true,
      "stateMutability": "payable",
      "type": "function"
    }
  ],
  "bytecode": "0x608060405234801561001057600080fd5b506040516101fe3803806101fe8339818101604052602081101561003357600080fd5b8101908080519060200190929190505050806000806101000a81548173ffffffffffffffffffffffffffffffffffffffff021916908373ffffffffffffffffffffffffffffffffffffffff1602179055505061016a806100946000396000f3fe60806040526004361061001e5760003560e01c8063f14faf6f14610023575b600080fd5b61004f6004803603602081101561003957600080fd5b8101908080359060200190929190505050610051565b005b600081116100c7576040517f08c379a00000000000000000000000000000000000000000000000000000000081526004018080602001828103825260188152602001807f596f752063616e277420646f6e617465206e6f7468696e67000000000000000081525060200191505060405180910390fd5b7f089eabc3ab54a1386db2a0122104264b1351af9ded61124a304f8d127634d61b8133604051808381526020018273ffffffffffffffffffffffffffffffffffffffff1673ffffffffffffffffffffffffffffffffffffffff1681526020019250505060405180910390a15056fea265627a7a7231582007c3bf321c87e2f2b35d2b7fe19c4c52359438d9f85fb9d80469c2586f3aa2a364736f6c63430005110032",
  "source": "pragma solidity ^0.5.17;\r\n\r\n// This contract is solely for testing purposes\r\n\r\ncontract CampaignTest {\r\n    address beneficiaryAddr;\r\n\r\n    event DonationMade(uint256 amt, address donor);\r\n\r\n    constructor(address newBeneficiaryAddr) public {\r\n        beneficiaryAddr = newBeneficiaryAddr;\r\n    }\r\n\r\n    function donate(uint256 amt) public payable {\r\n        require(amt > 0, \"You can't donate nothing\");\r\n        \r\n        emit DonationMade(amt, msg.sender);\r\n    }\r\n}",
  "sourcePath": "C:\\Users\\alan2\\Documents\\IS4302_Project\\Themis\\contracts\\CampaignTest.sol",
  "compiler": {
    "name": "solc",
    "version": "0.5.17+commit.d19bba13.Emscripten.clang"
  },
  "schemaVersion": "3.4.13",
  "updatedAt": "2023-03-27T05:55:46.480Z",
  "networkType": "ethereum",
  "devdoc": {
    "methods": {}
  },
  "userdoc": {
    "methods": {}
  }
}